:10000000C2C00000E0C00000DEC00000DCC0000094
:10001000DAC00000D8C00000D6C00000D4C0000084
:10002000D2C00000D0C00000CEC00000CCC0000094
:10003000CAC00000C8C00000C6C00000CEC3000097
:10004000C2C00000C0C00000BEC00000BCC00000B4
:10005000BAC00000B8C00000B6C00000B4C00000C4
:10006000B2C00000B0C00000AEC00000ACC00000D4
:10007000AAC00000A8C00000A6C00000A4C00000E4
:10008000A2C00000A0C000009EC000009CC00000F4
:100090009AC0000098C0000096C0000025C500006E
:1000A00092C0000090C000008EC000008CC0000014
:1000B0008AC0000088C0000086C0000084C0000024
:1000C00082C0000080C000007EC000007CC0000034
:1000D0007AC0000078C0000076C0000074C0000044
:1000E00072C000008F05E105E105E105E105E105CC
:1000F000E105E1058F05E105E105E105E105E10522
:10010000E105E1059105E105E105E105E105E1050F
:10011000E105E105E105E105E105E105E105E105AF
:10012000E105E1059105E105E105E105E105E105EF
:10013000E105E105E105E105E105E105E105E1058F
:10014000E105E105DD05E105E105E105E105E10583
:10015000E105E105BA05E105E105E105E105E10596
:10016000E105E105E105E105E105E105E105E1055F
:10017000E105E105AE05E105E105E105E105E10582
:10018000E105E105CC0511241FBECFEFD1E2DEBFB2
:10019000CDBF00E00CBF13E0A0E0B2E0EEE2F9E179
:1001A00000E00BBF02C007900D92A833B107D9F74A
:1001B00023E0A8E3B3E001C01D92A935B207E1F73F
:1001C00039D10C94950C1CCFEAE7F0E0808180686F
:1001D0008083ACE7B0E08C9180628C9380818160F9
:1001E0008083808182608083808184608083809826
:1001F0008C918F7B8C938C9180688C930895EAE727
:10020000F0E0808180648083808184FFFDCF8091D5
:100210007900089502D47ED14FEF60E680E693D155
:1002200040E064E080E68FD14FEF61E08BE28BD15C
:1002300040E060EE8FE087C10895CF92DF92EF92A9
:10024000FF920F931F93CF93DF93CDB7DEB72A971B
:100250000FB6F894DEBF0FBECDBF0983C12E1A833F
:100260002B833C834D835E836F83788789879A874E
:1002700080E334D183FDFCCF602F6295660F607EF2
:1002800081E339D1602F66956695669582E333D117
:100290006C2D85E330D1D12C1C141D048CF47E010F
:1002A00083E0E80EF11C00E010E0F70161917F01AE
:1002B00086E3800F20D10F5F1F4F0C151D05ACF397
:1002C00081E037D12A960FB6F894DEBF0FBECDBFBE
:1002D000DF91CF911F910F91FF90EF90DF90CF9022
:1002E00008959F92AF92BF92CF92DF92EF92FF92CA
:1002F0000F931F93CF93DF93CDB7DEB72A970FB637
:10030000F894DEBF0FBECDBF6C019E01255F3F4F4D
:10031000FE0133961192E217F307E1F78CE2DED08B
:1003200080FFFCCF81E6DAD0982E82E6D7D028E095
:10033000829FC001112496949694969496949694D4
:10034000982A85E6CBD08F70A82ED1F0EE24E394C6
:10035000F12CEC0EFD1E82E0E80EF11CEA0CF11C03
:100360008E010D5F1F4F0F2EF6E6BF2EF02D8B2D49
:10037000B5D0F80181938F01B394EE15FF05B9F75D
:1003800040E061E08CE2DFD09982AA828AE0FE013F
:100390003196D60101900D928A95E1F7C6012A9611
:1003A0000FB6F894DEBF0FBECDBFDF91CF911F9186
:1003B0000F91FF90EF90DF90CF90BF90AF909F9004
:1003C000089522E0FC01208321E0218362830895C7
:1003D000CF93DF931F921F92CDB7DEB7789458D397
:1003E00080E5898380E18A8362E0CE0101965AD359
:1003F0000F900F90DF91CF910895CF93DF9300D0AE
:10040000CDB7DEB790E599831A828B8363E0CE0186
:10041000019648D30F900F900F90DF91CF910895E0
:10042000EEDE8B3028F484E192E076D681E0089508
:1004300080E00895CF93DF93CDB7DEB76E970FB608
:10044000F894DEBF0FBECDBFDAD369D0E3DE09D3A7
:1004500073D2BADED9D2BCDF8AD084E292E09F9315
:100460008F9349D612D185D10F900F9003C08FE2A0
:1004700092E052D6CE010B9634DF8C898823B9F3F3
:1004800086E492E049D62FEF83ED90E3215080403F
:100490009040E1F700C000000EC0CE01459621DF7C
:1004A00081E692E039D68F899FD25FD28D8DAFD20F
:1004B0008B8D90E08FD1B4DF882379F361E0CE019A
:1004C00001967FDF09811A812B813C814D815E81FC
:1004D0006F81788589859A85B0DECCCFCF93C82F80
:1004E000BCD283E0A3D28C2FA1D2ABD2C82FB7D27B
:1004F0008C2FCF910895CF93DF93D82FC62FADD2F5
:1005000082E094D28D2F92D28C2F90D2A8D2DF91FC
:10051000CF910895A2D280EC89D2A1C208957DD254
:10052000F9DF8EE0DBDF803819F081E792E0F4C577
:100530000895CF93C82F91D28C2F8770806876D280
:100540008ED2CF9108951F93CF93DF93182FD62F7C
:10055000C42F83D285E06AD2812F68D28D2F66D2D4
:100560008C2F64D27CD2DF91CF911F910895E1E06E
:10057000F1E0808180618083A2E0B1E08C918061B4
:100580008C9380818062808380818260808380817F
:10059000886080838C91877F8C9380818064808346
:1005A0008C918F7B8C932FEF81EE94E021508040D3
:1005B0009040E1F700C00000E2E0F1E0808180645B
:1005C0008083E7E0F1E080818E7F808380818D7F72
:1005D000808380818B7F80838081877F80838081FF
:1005E0008F7E808380818F7D808380818F7B8083DD
:1005F00080818F7780830895E2E0F1E080818F7DB4
:1006000080838081877F80838FE99FE00197F1F766
:1006100000C000008091060190E0982F882720817B
:1006200028602083EFE9FFE03197F1F700C0000078
:1006300020910601E2E0F1E0308130623083822BCC
:100640000895DBCE0895E2E0F1E080818F7B808326
:100650002FEF81EE94E0215080409040E1F700C000
:1006600000008081806480830895811106C0E2E0EB
:10067000F1E080818D7F80830895813029F4E2E06C
:10068000F1E080818260808308950F931F93CF9360
:10069000DF93B2DFEC0180E0E8DF8FE5AEDE2FEF25
:1006A00089EF90E0215080409040E1F700C00000C9
:1006B000A3DF8C01C817D90781F02FEF89EF90E0F5
:1006C000215080409040E1F700C0000095DFEC0130
:1006D0008017910719F08C01F0CFEC0180E08DDEDE
:1006E000B2DF8ADF909344038093430381E0BDDF50
:1006F0008FE583DE2FEF89EF90E02150804090401E
:10070000E1F700C0000078DF8C018C179D0779F0BD
:100710002FEF89EF90E0215080409040E1F700C03A
:1007200000006ADF8017910711F08C01F1CF80E0A3
:1007300064DE2FEF83EC99E0215080409040E1F798
:1007400000C0000059DF909346038093450381E287
:1007500093E0E2D4DF91CF911F910F9108958091A2
:10076000450390914603089580914303909144037B
:100770000895F894E0E7F0E0808181608083E1EB08
:10078000F0E08081816080838081826080838081CD
:1007900084608083E9DF90934A0380934903DFDF1D
:1007A000BC01909348038093470380914903909143
:1007B0004A03681B790B882777FD8095982F34D3DF
:1007C00060934B0370934C0380934D0390934E03BF
:1007D000789408958093120208951F920F920FB695
:1007E0000F9211240BB60F92CF92DF92EF92FF92ED
:1007F0000F931F932F933F934F935F936F937F9329
:100800008F939F93AF93BF93CF93DF93EF93FF9318
:10081000F3DE90933B0380933A03C0911202D0E041
:10082000BC01882777FD8095982FFED220914B033D
:1008300030914C0340914D0350914E035AD220E029
:1008400030E04FE753E4A4D3BCD2C61BD70BBE01A4
:10085000882777FD8095982FE7D220910A02309162
:100860000B0240910C0250910D0292D36B017C015E
:100870008091380390913903BE01681B790B88275A
:1008800077FD8095982FD0D22091060230910702F3
:1008900040910802509109027BD320910E023091C1
:1008A0000F02409110025091110223D29B01AC0122
:1008B000C701B601B6D185D26B017C018B011C1634
:1008C0001D065CF481E0D1DE063911051CF48C2D87
:1008D000B8DE12C086E9B5DE0FC080E0C6DE88272C
:1008E00099278C199D098639910524F48C2D8195C1
:1008F000A8DE02C086E9A5DED0933903C093380391
:10090000B89AFF91EF91DF91CF91BF91AF919F91F5
:100910008F917F916F915F914F913F912F911F9197
:100920000F91FF90EF90DF90CF900F900BBE0F9044
:100930000FBE0F901F901895E1E8F0E08081816074
:10094000808380818260808380818B7F808388E840
:1009500093E19093870080938600259A87E791E042
:1009600090938900809388000895CF92DF92EF9250
:10097000FF926B017C0126E636E646E65FE3B5D1E1
:10098000882354F026E636E646E050E4C701B60177
:10099000FBD2181654F012C00F2EF6E6CF2EDC2C28
:1009A000EC2CFFE3FF2EF02D09C00F2EF6E6CF2E24
:1009B000DC2CF6E0EF2EF0E4FF2EF02D20E034E208
:1009C00044E758E4C701B601E3D220E030E04AE74B
:1009D00054E48FD1FBD17093890060938800FF901D
:1009E000EF90DF90CF900895682F70E080E090E066
:1009F0001BD22DEC33E34AE95BE3CAD226E636E6A6
:100A000046E65FE30EC10895819A89980895882388
:100A100011F0899A089589980895229A219A209A26
:100A2000279A239881E58CBD2F9A08958EBD0DB429
:100A300007FEFDCF8FE99FE00197F1F700C00000AE
:100A400008951EBC0DB407FEFDCF8FE99FE001970E
:100A5000F1F700C000008EB508952F9808952F9AE1
:100A60000895E0E8F0E080818E7F8083808182605D
:100A70008083A1E8B0E08C9188608C938C91806138
:100A80008C9380818F7B80838081806880830895B0
:100A90008CE08093B8008FEF8093BB0084E080935C
:100AA000BC000895ECEBF0E0208120FDFDCF6093C9
:100AB0003E03FC01208120933F0320FD0CC06230E7
:100AC00050F0DC011196E0E4F3E081E09D91919318
:100AD0008F5F8613FBCF10923D0388EF8093130244
:100AE00085EA8093BC0008951F920F920FB60F9273
:100AF00011240BB60F922F933F938F939F93AF9335
:100B0000BF93EF93FF938091B90090E0FC01389779
:100B1000E135F10508F055C0EE58FF4F9CC2109228
:100B20003C03E0913C0380913E03E81770F481E0C0
:100B30008E0F80933C03F0E0E15CFC4F808180935A
:100B4000BB0085E88093BC0043C080913D03816079
:100B500080933D0384E98093BC003AC0E0913C035C
:100B600081E08E0F80933C038091BB00F0E0E15C5C
:100B7000FC4F808320913C0330E080913E0390E065
:100B800001972817390724F485EC8093BC0020C016
:100B900085E88093BC001CC08091BB00E0913C03C1
:100BA000F0E0E15CFC4F808380913D0381608093A5
:100BB0003D0384E98093BC000BC085EA8093BC00B0
:100BC00007C08091B9008093130284E08093BC0039
:100BD000FF91EF91BF91AF919F918F913F912F9195
:100BE0000F900BBE0F900FBE0F901F901895E0EC6A
:100BF000F0E0908195FFFDCF8093C600089510929C
:100C0000C50087E68093C40088E18093C1008EE030
:100C10008093C20060E070E087EF95E022C2089503
:100C20005058BB27AA270ED075C166D130F06BD1C2
:100C300020F031F49F3F11F41EF45BC10EF4E095F7
:100C4000E7FB51C1E92F77D180F3BA176207730729
:100C50008407950718F071F49EF58FC10EF4E095A6
:100C60000B2EBA2FA02D0B01B90190010C01CA0166
:100C7000A0011124FF27591B99F0593F50F4503E11
:100C800068F11A16F040A22F232F342F4427585F03
:100C9000F3CF469537952795A795F0405395C9F71B
:100CA0007EF41F16BA0B620B730B840BBAF09150D3
:100CB000A1F0FF0FBB1F661F771F881FC2F70EC072
:100CC000BA0F621F731F841F48F487957795679545
:100CD000B795F7959E3F08F0B3CF9395880F08F02E
:100CE0009927EE0F979587950895D9D008F481E05C
:100CF00008950CD00FC107D140F0FED030F021F4A0
:100D00005F3F19F0F0C0511139C1F3C014D198F30D
:100D10009923C9F35523B1F3951B550BBB27AA277C
:100D200062177307840738F09F5F5F4F220F331FEE
:100D3000441FAA1FA9F333D00E2E3AF0E0E830D0BA
:100D400091505040E695001CCAF729D0FE2F27D0BD
:100D5000660F771F881FBB1F261737074807AB078B
:100D6000B0E809F0BB0B802DBF01FF2793585F4F00
:100D70002AF09E3F510568F0B6C000C15F3FECF31A
:100D8000983EDCF3869577956795B795F7959F5FC5
:100D9000C9F7880F911D9695879597F90895E1E019
:100DA000660F771F881FBB1F621773078407BA0778
:100DB00020F0621B730B840BBA0BEE1F88F7E095D3
:100DC000089504D06894B111D9C00895BCD088F0BA
:100DD0009F5790F0B92F9927B751A0F0D1F0660F27
:100DE000771F881F991F1AF0BA95C9F712C0B13042
:100DF00081F0C3D0B1E00895C0C0672F782F882755
:100E0000B85F39F0B93FCCF3869577956795B39580
:100E1000D9F73EF490958095709561957F4F8F4FEF
:100E20009F4F0895E89409C097FB3EF490958095F4
:100E3000709561957F4F8F4F9F4F9923A9F0F92FA0
:100E400096E9BB279395F695879577956795B7951E
:100E5000F111F8CFFAF4BB0F11F460FF1BC06F5F04
:100E60007F4F8F4F9F4F16C0882311F096E911C016
:100E7000772321F09EE8872F762F05C0662371F037
:100E800096E8862F70E060E02AF09A95660F771F4B
:100E9000881FDAF7880F9695879597F90895990F27
:100EA0000008550FAA0BE0E8FEEF16161706E80734
:100EB000F907C0F012161306E407F50798F0621B55
:100EC000730B840B950B39F40A2661F0232B242B2A
:100ED000252B21F408950A2609F4A140A6958FEF49
:100EE000811D811D089597F99F6780E870E060E09B
:100EF00008959FEF80EC089500240A9416161706B3
:100F000018060906089500240A94121613061406FA
:100F100005060895092E0394000C11F4882352F05D
:100F2000BB0F40F4BF2B11F460FF04C06F5F7F4F15
:100F30008F4F9F4F089557FD9058440F551F59F0FC
:100F40005F3F71F04795880F97FB991F61F09F3FB6
:100F500079F087950895121613061406551FF2CFDF
:100F60004695F1DF08C0161617061806991FF1CF2F
:100F700086957105610508940895E894BB27662756
:100F80007727CB0197F908958ADF08F48FEF08954A
:100F90000BD0C0CFB1DF28F0B6DF18F0952309F0F1
:100FA000A2CFA7CF1124EACFC6DFA0F3959FD1F33C
:100FB000950F50E0551F629FF001729FBB27F00D07
:100FC000B11D639FAA27F00DB11DAA1F649F66275C
:100FD000B00DA11D661F829F2227B00DA11D621FAB
:100FE000739FB00DA11D621F839FA00D611D221F65
:100FF000749F3327A00D611D231F849F600D211D49
:10100000822F762F6A2F11249F5750408AF0E1F0EB
:1010100088234AF0EE0FFF1FBB1F661F771F881F34
:1010200091505040A9F79E3F510570F05CCFA6CF7C
:101030005F3FECF3983EDCF3869577956795B7951F
:10104000F795E7959F5FC1F7FE2B880F911D969549
:10105000879597F90895EE0FFF1F0590F491E02D05
:1010600019940F931F93CF93DF93EC018B0100979B
:1010700031F46115710519F480E090E037C06EE03D
:1010800070E081E090E063D2FC010097A9F380E872
:1010900083830115110571F01387028781E883832B
:1010A00080914F0390915003892B21F4F0935003CA
:1010B000E0934F032097C9F0D187C0878381826076
:1010C00083838091510390915203892B71F4F093A3
:1010D0005203E09351038091530390915403892B61
:1010E00021F4F0935403E0935303CF01DF91CF91A8
:1010F0001F910F910895CF93DF93CDB7DEB7FE0117
:10110000369661917191AF01809151039091520394
:1011100030D0DF91CF9108950F931F93CF93DF933A
:10112000E0915103F0915203238121FF1BC0EC0198
:1011300000E010E089916091510370915203DB014E
:101140001896ED91FC911997882331F01995892B08
:1011500089F30FEF1FEFEECF8AE01995892B11F479
:10116000C80102C08FEF9FEFDF91CF911F910F91C8
:1011700008952F923F924F925F926F927F928F923B
:101180009F92AF92BF92CF92DF92EF92FF920F9316
:101190001F93CF93DF93CDB7DEB72C970FB6F8949C
:1011A000DEBF0FBECDBF7C016B018A01FC0117823F
:1011B0001682838181FFB0C1CE0101964C01F701F7
:1011C0009381F60193FD859193FF81916F018823AF
:1011D00009F49EC1853239F493FD859193FF819185
:1011E0006F01853221F4B70190E00FD3E8CF512C85
:1011F000312C20E02032A0F48B3269F030F48032C0
:1012000059F0833269F420612CC08D3239F080337B
:1012100039F4216026C02260246023C0286021C0E8
:1012200027FD27C030ED380F3A3078F426FF06C08E
:10123000FAE05F9E300D1124532E13C08AE0389ED1
:10124000300D1124332E20620CC08E3221F426FD85
:101250005FC1206406C08C3611F4206802C0883655
:1012600041F4F60193FD859193FF81916F01811106
:10127000C1CF982F9F7D9554933028F40C5F1F4F5A
:10128000FFE3F9830DC0833631F0833771F0833586
:1012900009F057C021C0F801808189830E5F1F4F7C
:1012A00044244394512C540114C03801F2E06F0ED1
:1012B000711CF801A080B18026FF03C0652D70E08D
:1012C00002C06FEF7FEFC5012C8794D22C01830100
:1012D0002C852F77222E16C03801F2E06F0E711C7C
:1012E000F801A080B18026FF03C0652D70E002C028
:1012F0006FEF7FEFC5012C876BD22C012C85206806
:10130000222E830123FC19C0832D90E04816590634
:10131000A0F4B70180E290E078D23A94F5CFF501DD
:1013200027FC859127FE81915F01B70190E06DD286
:1013300031103A94F1E04F1A51084114510479F7F1
:10134000DEC0843611F0893631F5F80127FF07C079
:1013500060817181828193810C5F1F4F08C0608121
:101360007181882777FD8095982F0E5F1F4F2F760C
:10137000B22E97FF09C090958095709561957F4F2B
:101380008F4F9F4F2068B22E2AE030E0A4016FD229
:10139000A82EA81843C0853729F42F7EB22E2AE044
:1013A00030E025C0F22FF97FBF2E8F36C1F018F440
:1013B000883579F0ADC0803719F0883721F0A8C0A2
:1013C0002F2F2061B22EB4FE0DC08B2D8460B82E5D
:1013D00009C024FF0AC09F2F9660B92E06C028E0DE
:1013E00030E005C020E130E002C020E132E0F80149
:1013F000B7FE07C060817181828193810C5F1F4FAE
:1014000006C06081718180E090E00E5F1F4FA401F3
:101410002ED2A82EA818FB2DFF77BF2EB6FE0BC02C
:101420002B2D2E7FA51450F4B4FE0AC0B2FC08C0C8
:101430002B2D2E7E05C07A2C2B2D03C07A2C01C0BB
:10144000752C24FF0DC0FE01EA0DF11D8081803353
:1014500011F4297E09C022FF06C07394739404C05E
:10146000822F867809F0739423FD12C020FF06C0F6
:101470005A2C731418F4530C5718732C731460F40B
:10148000B70180E290E02C87C0D173942C85F6CF11
:10149000731410F4371801C0312C24FF11C0B701A8
:1014A00080E390E02C87B1D12C8522FF16C021FF6C
:1014B00003C088E590E002C088E790E0B7010CC067
:1014C000822F867851F021FD02C080E201C08BE2BC
:1014D00027FD8DE2B70190E098D1A51430F4B70153
:1014E00080E390E092D15A94F8CFAA94F401EA0DE7
:1014F000F11D8081B70190E088D1A110F6CF332093
:1015000009F45DCEB70180E290E07FD13A94F7CF45
:10151000F7018681978102C08FEF9FEF2C960FB65F
:10152000F894DEBF0FBECDBFDF91CF911F910F9119
:10153000FF90EF90DF90CF90BF90AF909F908F90F3
:101540007F906F905F904F903F902F9008950F93F2
:101550001F93CF93DF93869F8001879F100D969FE7
:10156000100D1124C8010DD0EC01009721F0A80145
:1015700060E070E038D1CE01DF91CF911F910F91E3
:101580000895CF93DF938230910510F482E090E0CC
:10159000E0915703F091580320E030E0A0E0B0E084
:1015A000309739F14081518148175907B8F04817F1
:1015B000590771F482819381109729F013969C93B7
:1015C0008E9312972CC0909358038093570327C093
:1015D0002115310531F04217530718F0A901DB013D
:1015E00001C0EF019A01BD01DF010280F381E02D0E
:1015F000D7CF21153105F9F0281B390B24303105DF
:1016000080F48A819B816115710521F0FB01938330
:10161000828304C09093580380935703FE0132964F
:1016200044C0FE01E20FF31F8193919322503109D0
:10163000398328833AC02091550330915603232BD8
:1016400041F420910202309103023093560320931B
:10165000550320910002309101022115310541F41A
:101660002DB73EB74091040250910502241B350B63
:10167000E0915503F0915603E217F307A0F42E1BF7
:101680003F0B2817390778F0AC014E5F5F4F2417E6
:10169000350748F04E0F5F1F509356034093550394
:1016A0008193919302C0E0E0F0E0CF01DF91CF9110
:1016B0000895CF93DF93009709F487C0FC01329718
:1016C00013821282C0915703D0915803209781F45E
:1016D00020813181280F391F809155039091560345
:1016E0008217930779F5F0935603E09355036DC085
:1016F000DE0120E030E0AE17BF0750F412964D91A6
:101700005C9113979D014115510509F1DA01F3CF61
:10171000B383A28340815181840F951F8A179B0751
:1017200071F48D919C911197840F951F029691836E
:10173000808312968D919C911397938382832115B8
:10174000310529F4F0935803E09357033EC0D901C3
:101750001396FC93EE9312974D915D91A40FB51FD4
:10176000EA17FB0779F480819181840F951F029617
:10177000D90111969C938E938281938113969C93A9
:101780008E931297E0E0F0E08A819B81009719F038
:10179000FE01EC01F9CFCE01029628813981820F3A
:1017A000931F20915503309156032817390769F488
:1017B000309729F4109258031092570302C01382F5
:1017C0001282D0935603C0935503DF91CF910895B1
:1017D000FC010590615070400110D8F780959095FC
:1017E0008E0F9F1F0895DC0101C06D934150504042
:1017F000E0F70895FC016150704001900110D8F7A6
:10180000809590958E0F9F1F08950F931F93CF93F0
:10181000DF93182F092FEB018B8181FD03C08FEF20
:101820009FEF20C082FF10C04E815F812C813D81DF
:10183000421753077CF4E881F9819F012F5F3F4FE6
:1018400039832883108306C0E885F985812F19958F
:10185000892B29F72E813F812F5F3F4F3F832E83B6
:10186000812F902FDF91CF911F910F910895FA0151
:10187000AA27283051F1203181F1E8946F936E7FCF
:101880006E5F7F4F8F4F9F4FAF4FB1E03ED0B4E0C0
:101890003CD0670F781F891F9A1FA11D680F791F01
:1018A0008A1F911DA11D6A0F711D811D911DA11D12
:1018B00020D009F468943F912AE0269F1124301922
:1018C000305D3193DEF6CF010895462F4770405DBD
:1018D0004193B3E00FD0C9F7F6CF462F4F70405D6C
:1018E0004A3318F0495D31FD4052419302D0A9F7C7
:1018F000EACFB4E0A6959795879577956795BA95C1
:10190000C9F700976105710508959B01AC010A2E86
:1019100006945795479537952795BA95C9F7620F5D
:0E192000731F841F951FA01D0895F894FFCF1C
:10192E0000005903200017B75139000080406F1294
:10193E00833C7FF847414D45204F564552204C4140
:10194E004421210074657374207072696E74000AEC
:10195E00496E736964652067616D655F666C61676A
:10196E00206C6F6F70000A46697273742047616D48
:10197E00655F535441525420636F6D706C6574658E
:10198E00000A2067616D652072756E6E696E672044
:10199E00004572726F7220776974682074686520D2
:1019AE00636F6E74726F6C6C65722E205265676910
:1019BE007374657273206E6F742070726F706572BF
:1019CE006C792072657365742E20000A2074686528
:1019DE0020646174612066726F6D20746865206387
:1019EE00616E6374726C3A202564000A2074686517
:1019FE0020646174612066726F6D20746865206367
:101A0E00616E6374726C20616674657220626974B3
:101A1E00206D6F64696679696E67202873657474CA
:101A2E00696E6720746865206C6173742033206260
:101A3E0069747320746F207A65726F3A2025640A78
:101A4E00000A63616C6962726174696F6E20636F04
:081A5E006D706C6574650000F9
:00000001FF
