S00D00004E6F6465322E737265635F
S1130000C2C00000E0C00000DEC00000DCC0000090
S1130010DAC00000D8C00000D6C00000D4C0000080
S1130020D2C00000D0C00000CEC00000CCC0000090
S1130030CAC00000C8C00000C6C00000DCC3000085
S1130040C2C00000C0C00000BEC00000BCC00000B0
S1130050BAC00000B8C00000B6C00000B4C00000C0
S1130060B2C00000B0C00000AEC00000ACC00000D0
S1130070AAC00000A8C00000A6C00000A4C00000E0
S1130080A2C00000A0C000009EC000009CC00000F0
S11300909AC0000098C0000096C000009DC50000F2
S11300A092C0000090C000008EC000008CC0000010
S11300B08AC0000088C0000086C0000084C0000020
S11300C082C0000080C000007EC000007CC0000030
S11300D07AC0000078C0000076C0000074C0000040
S11300E072C00000070659065906590659065906F2
S11300F05906590607065906590659065906590656
S11301005906590609065906590659065906590643
S113011059065906590659065906590659065906E3
S11301205906590609065906590659065906590623
S113013059065906590659065906590659065906C3
S113014059065906550659065906590659065906B7
S113015059065906320659065906590659065906CA
S11301605906590659065906590659065906590693
S113017059065906260659065906590659065906B6
S113018059065906440611241FBECFEFD1E2DEBF43
S1130190CDBF00E00CBF13E0A0E0B2E0EEE1FAE175
S11301A000E00BBF02C007900D92A430B107D9F74D
S11301B023E0A4E0B3E001C01D92A532B207E1F749
S11301C039D10C940D0D1CCFEAE7F0E080818068F2
S11301D08083ACE7B0E08C9180628C9380818160F5
S11301E08083808182608083808184608083809822
S11301F08C918F7B8C938C9180688C930895EAE723
S1130200F0E0808180648083808184FFFDCF8091D1
S1130210790008957AD48CD14FEF60E680E6A1D1BD
S113022040E064E080E69DD14FEF61E08BE299D13C
S113023040E060EE8FE095C10895CF92DF92EF9297
S1130240FF920F931F93CF93DF93CDB7DEB72A9717
S11302500FB6F894DEBF0FBECDBF0983C12E1A833B
S11302602B833C834D835E836F83788789879A874A
S113027080E342D183FDFCCF602F6295660F607EE0
S113028081E347D1602F66956695669582E341D1F7
S11302906C2D85E33ED1D12C1C141D048CF47E01FD
S11302A083E0E80EF11C00E010E0F70161917F01AA
S11302B086E3800F2ED10F5F1F4F0C151D05ACF385
S11302C081E045D12A960FB6F894DEBF0FBECDBFAC
S11302D0DF91CF911F910F91FF90EF90DF90CF901E
S11302E008959F92AF92BF92CF92DF92EF92FF92C6
S11302F00F931F93CF93DF93CDB7DEB72A970FB633
S1130300F894DEBF0FBECDBF6C019E01255F3F4F49
S1130310FE0133961192E217F307E1F78CE2ECD079
S113032080FFFCCF81E6E8D0982E82E6E5D028E075
S1130330829FC001112496949694969496949694D0
S1130340982A85E6D9D08F70A82ED1F0EE24E394B4
S1130350F12CEC0EFD1E82E0E80EF11CEA0CF11CFF
S11303608E010D5F1F4F0F2EF6E6BF2EF02D8B2D45
S1130370C3D0F80181938F01B394EE15FF05B9F74B
S113038040E061E08CE2EDD09982AA828AE0FE012D
S11303903196D60101900D928A95E1F7C6012A960D
S11303A00FB6F894DEBF0FBECDBFDF91CF911F9182
S11303B00F91FF90EF90DF90CF90BF90AF909F9000
S11303C0089522E0FC01208321E0218362830895C3
S11303D0CF93DF931F921F92CDB7DEB77894D0D31B
S11303E080E5898380E18A8362E0CE010196D2D3DD
S11303F00F900F90DF91CF910895CF93DF9300D0AA
S1130400CDB7DEB790E599831A828B8363E0CE0182
S11304100196C0D30F900F900F90DF91CF91089564
S1130420EEDE8B3028F484E192E0EED681E008958C
S113043080E00895CF93DF93CDB7DEB7E2970FB690
S1130440F894DEBF0FBECDBF52D477D0E3DE81D3A4
S1130450EBD2BADE51D3BCDF98D084E292E09F9312
S11304608F93C1D620D193D10F900F900F2EFFE21E
S1130470EF2EF2E0FF2EF02DCE014F9632DF88A54D
S11304808823D1F32FEF83ED90E3215080409040F7
S1130490E1F700C00000CE01459623DF888D1F924E
S11304A08F93FF92EF929FD60F900F900F900F9023
S11304B010C0CE010B9615DF8E854CD2CE018996E5
S11304C010DF8BA509D3C9D289A919D38FA590E0D0
S11304D08FD1A6DF882369F361E0CE01019671DF35
S11304E009811A812B813C814D815E816F817885E0
S11304F089859A85A2DEC0CFCF93C82F26D383E007
S11305000DD38C2F0BD315D3C82F21D38C2FCF9180
S11305100895CF93DF93D82FC62F17D382E0FED24E
S11305208D2FFCD28C2FFAD212D3DF91CF91089564
S11305300CD380ECF3D20BC30895E7D2F9DF8EE03D
S1130540DBDF803819F08EE392E05EC60895CF9326
S1130550C82FFBD28C2F87708068E0D2F8D2CF915D
S113056008951F93CF93DF93182FD62FC42FEDD266
S113057085E0D4D2812FD2D28D2FD0D28C2FCED25F
S1130580E6D2DF91CF911F910895E1E0F1E08081FF
S113059080618083A2E0B1E08C9180618C93808142
S11305A08062808380818260808380818860808390
S11305B08C91877F8C938081806480838C918F7BE6
S11305C08C932FEF81EE94E0215080409040E1F72E
S11305D000C00000E2E0F1E0808180648083E7E015
S11305E0F1E080818E7F808380818D7F8083808114
S11305F08B7F80838081877F808380818F7E8083CF
S113060080818F7D808380818F7B808380818F77C1
S113061080830895E2E0F1E080818F7D8083808192
S1130620877F80838FE99FE00197F1F700C0000086
S11306308091060190E0982F8827208128602083EC
S1130640EFE9FFE03197F1F700C0000020910601C7
S1130650E2E0F1E0308130623083822B0895CDCE28
S11306600895E2E0F1E080818F7B80832FEF81EEBB
S113067094E0215080409040E1F700C00000808168
S1130680806480830895811106C0E2E0F1E08081F6
S11306908D7F80830895813029F4E2E0F1E0808148
S11306A08260808308950F931F93CF93DF93B2DF0B
S11306B0EC0180E0E8DF8FE5A0DE2FEF89EF90E02A
S11306C0215080409040E1F700C00000A3DF8C017E
S11306D0C817D90781F02FEF89EF90E021508040AF
S11306E09040E1F700C0000095DFEC01801791070E
S11306F019F08C01F0CFEC0180E07FDEB2DF8ADFFD
S11307009093100380930F0381E0BDDF8FE575DEC6
S11307102FEF89EF90E0215080409040E1F700C036
S1130720000078DF8C018C179D0779F02FEF89EF9B
S113073090E0215080409040E1F700C000006ADF63
S11307408017910711F08C01F1CF80E056DE2FEF76
S113075083EC99E0215080409040E1F700C0000014
S113076059DF90931203809311038EEE92E04CD5DF
S1130770DF91CF911F910F91089580911103909172
S11307801203089580910F03909110030895F89433
S1130790E0E7F0E0808181608083E1EBF0E080813C
S11307A08160808380818260808380818460808393
S11307B0E9DF9093160380931503DFDFBC01909368
S11307C01403809313038091150390911603681BFF
S11307D0790B882777FD8095982F9ED36093170314
S11307E0709318038093190390931A0378940895CF
S11307F08093120208951F920F920FB60F92112444
S11308000BB60F92CF92DF92EF92FF920F931F934A
S11308102F933F934F935F936F937F938F939F9304
S1130820AF93BF93CF93DF93EF93FF93F3DE909354
S1130830070380930603C0911202D0E0BC0188270D
S113084077FD8095982F68D3209117033091180372
S11308504091190350911A03C4D220E030E04FE7CD
S113086053E40ED426D3C61BD70BBE01882777FDCD
S11308708095982F51D320910A0230910B02409118
S11308800C0250910D02FCD36B017C018091040396
S113089090910503BE01681B790B882777FD80952D
S11308A0982F3AD320910602309107024091080212
S11308B050910902E5D320910E0230910F0240912C
S11308C01002509111028DD29B01AC01C701B601F7
S11308D020D2EFD26B017C018B011C161D065CF447
S11308E081E0D1DE063911051CF48C2DB8DE12C06E
S11308F086E9B5DE0FC080E0C6DE882799278C190B
S11309009D098639910524F48C2D8195A8DE02C0B9
S113091086E9A5DED0930503C0930403B89AFF913A
S1130920EF91DF91CF91BF91AF919F918F917F9183
S11309306F915F914F913F912F911F910F91FF9074
S1130940EF90DF90CF900F900BBE0F900FBE0F90E3
S11309501F9018958130E9F018F0823099F14BC05E
S113096080E090E0A0E8B0E480930A0290930B0248
S1130970A0930C02B0930D0287E197EBA1E5B9E3D4
S11309808093060290930702A0930802B093090291
S1130990089580E090E0A0ECB0E480930A02909384
S11309A00B02A0930C02B0930D028AE097EDA3EA28
S11309B0BCE38093060290930702A0930802B093CD
S11309C00902089580E090E0A0E0B1E480930A0277
S11309D090930B02A0930C02B0930D028DEC9CEC4F
S11309E0ACE4BEE38093060290930702A09308024E
S11309F0B0930902089580E090E0A0E8B0E4809309
S1130A000A0290930B02A0930C02B0930D0287E1AB
S1130A1097EBA1E5B9E38093060290930702A093B4
S1130A200802B09309020895E1E8F0E08081816052
S1130A30808380818260808380818B7F808388E84B
S1130A4093E19093870080938600259A87E791E04D
S1130A5090938900809388000895CF92DF92EF925B
S1130A60FF926B017C0126E636E646E65FE3B5D1EC
S1130A70882354F026E636E646E050E4C701B60182
S1130A80FBD2181654F012C00F2EF6E6CF2EDC2C33
S1130A90EC2CFFE3FF2EF02D09C00F2EF6E6CF2E2F
S1130AA0DC2CF6E0EF2EF0E4FF2EF02D20E034E213
S1130AB044E758E4C701B601E3D220E030E04AE756
S1130AC054E48FD1FBD17093890060938800FF9028
S1130AD0EF90DF90CF900895682F70E080E090E071
S1130AE01BD22DEC33E34AE95BE3CAD226E636E6B1
S1130AF046E65FE30EC10895819A89980895882394
S1130B0011F0899A089589980895229A219A209A31
S1130B10279A239881E58CBD2F9A08958EBD0DB434
S1130B2007FEFDCF8FE99FE00197F1F700C00000B9
S1130B3008951EBC0DB407FEFDCF8FE99FE0019719
S1130B40F1F700C000008EB508952F9808952F9AEC
S1130B500895E0E8F0E080818E7F80838081826068
S1130B608083A1E8B0E08C9188608C938C91806143
S1130B708C9380818F7B80838081806880830895BB
S1130B808CE08093B8008FEF8093BB0084E0809367
S1130B90BC000895ECEBF0E0208120FDFDCF6093D4
S1130BA00A03FC01208120930B0320FD0CC062305A
S1130BB050F0DC011196ECE0F3E081E09D9191931B
S1130BC08F5F8613FBCF1092090388EF8093130283
S1130BD085EA8093BC0008951F920F920FB60F927E
S1130BE011240BB60F922F933F938F939F93AF9340
S1130BF0BF93EF93FF938091B90090E0FC01389785
S1130C00E135F10508F055C0EE58FF4F9CC2109233
S1130C100803E091080380910A03E81770F481E067
S1130C208E0F80930803F0E0E55FFC4F8081809392
S1130C30BB0085E88093BC0043C0809109038160B8
S1130C408093090384E98093BC003AC0E0910803CF
S1130C5081E08E0F809308038091BB00F0E0E55F94
S1130C60FC4F80832091080330E080910A0390E0D8
S1130C7001972817390724F485EC8093BC0020C021
S1130C8085E88093BC001CC08091BB00E091080300
S1130C90F0E0E55FFC4F80838091090381608093DD
S1130CA0090384E98093BC000BC085EA8093BC00EF
S1130CB007C08091B9008093130284E08093BC0044
S1130CC0FF91EF91BF91AF919F918F913F912F91A0
S1130CD00F900BBE0F900FBE0F901F901895E0EC75
S1130CE0F0E0908195FFFDCF8093C60008951092A7
S1130CF0C50087E68093C40088E18093C1008EE03C
S1130D008093C20060E070E08FE696E022C208950E
S1130D105058BB27AA270ED075C166D130F06BD1CD
S1130D2020F031F49F3F11F41EF45BC10EF4E09502
S1130D30E7FB51C1E92F77D180F3BA176207730734
S1130D408407950718F071F49EF58FC10EF4E095B1
S1130D500B2EBA2FA02D0B01B90190010C01CA0171
S1130D60A0011124FF27591B99F0593F50F4503E1C
S1130D7068F11A16F040A22F232F342F4427585F0E
S1130D80F3CF469537952795A795F0405395C9F726
S1130D907EF41F16BA0B620B730B840BBAF09150DE
S1130DA0A1F0FF0FBB1F661F771F881FC2F70EC07D
S1130DB0BA0F621F731F841F48F487957795679550
S1130DC0B795F7959E3F08F0B3CF9395880F08F039
S1130DD09927EE0F979587950895D9D008F481E067
S1130DE008950CD00FC107D140F0FED030F021F4AB
S1130DF05F3F19F0F0C0511139C1F3C014D198F319
S1130E009923C9F35523B1F3951B550BBB27AA2787
S1130E1062177307840738F09F5F5F4F220F331FF9
S1130E20441FAA1FA9F333D00E2E3AF0E0E830D0C5
S1130E3091505040E695001CCAF729D0FE2F27D0C8
S1130E40660F771F881FBB1F261737074807AB0796
S1130E50B0E809F0BB0B802DBF01FF2793585F4F0B
S1130E602AF09E3F510568F0B6C000C15F3FECF325
S1130E70983EDCF3869577956795B795F7959F5FD0
S1130E80C9F7880F911D9695879597F90895E1E024
S1130E90660F771F881FBB1F621773078407BA0783
S1130EA020F0621B730B840BBA0BEE1F88F7E095DE
S1130EB0089504D06894B111D9C00895BCD088F0C5
S1130EC09F5790F0B92F9927B751A0F0D1F0660F32
S1130ED0771F881F991F1AF0BA95C9F712C0B1304D
S1130EE081F0C3D0B1E00895C0C0672F782F882760
S1130EF0B85F39F0B93FCCF3869577956795B3958C
S1130F00D9F73EF490958095709561957F4F8F4FFA
S1130F109F4F0895E89409C097FB3EF490958095FF
S1130F20709561957F4F8F4F9F4F9923A9F0F92FAB
S1130F3096E9BB279395F695879577956795B79529
S1130F40F111F8CFFAF4BB0F11F460FF1BC06F5F0F
S1130F507F4F8F4F9F4F16C0882311F096E911C021
S1130F60772321F09EE8872F762F05C0662371F042
S1130F7096E8862F70E060E02AF09A95660F771F56
S1130F80881FDAF7880F9695879597F90895990F32
S1130F900008550FAA0BE0E8FEEF16161706E8073F
S1130FA0F907C0F012161306E407F50798F0621B60
S1130FB0730B840B950B39F40A2661F0232B242B35
S1130FC0252B21F408950A2609F4A140A6958FEF54
S1130FD0811D811D089597F99F6780E870E060E0A6
S1130FE008959FEF80EC089500240A9416161706BE
S1130FF018060906089500240A9412161306140606
S113100005060895092E0394000C11F4882352F068
S1131010BB0F40F4BF2B11F460FF04C06F5F7F4F20
S11310208F4F9F4F089557FD9058440F551F59F007
S11310305F3F71F04795880F97FB991F61F09F3FC1
S113104079F087950895121613061406551FF2CFEA
S11310504695F1DF08C0161617061806991FF1CF3A
S113106086957105610508940895E894BB27662761
S11310707727CB0197F908958ADF08F48FEF089555
S11310800BD0C0CFB1DF28F0B6DF18F0952309F0FC
S1131090A2CFA7CF1124EACFC6DFA0F3959FD1F347
S11310A0950F50E0551F629FF001729FBB27F00D12
S11310B0B11D639FAA27F00DB11DAA1F649F662767
S11310C0B00DA11D661F829F2227B00DA11D621FB6
S11310D0739FB00DA11D621F839FA00D611D221F70
S11310E0749F3327A00D611D231F849F600D211D54
S11310F0822F762F6A2F11249F5750408AF0E1F0F7
S113110088234AF0EE0FFF1FBB1F661F771F881F3F
S113111091505040A9F79E3F510570F05CCFA6CF87
S11311205F3FECF3983EDCF3869577956795B7952A
S1131130F795E7959F5FC1F7FE2B880F911D969554
S1131140879597F90895EE0FFF1F0590F491E02D10
S113115019940F931F93CF93DF93EC018B010097A6
S113116031F46115710519F480E090E037C06EE048
S113117070E081E090E063D2FC010097A9F380E87D
S113118083830115110571F01387028781E8838336
S113119080911B0390911C03892B21F4F0931C0371
S11311A0E0931B032097C9F0D187C08783818260B5
S11311B0838380911D0390911E03892B71F4F09316
S11311C01E03E0931D0380911F0390912003892B3C
S11311D021F4F0932003E0931F03CF01DF91CF911B
S11311E01F910F910895CF93DF93CDB7DEB7FE0122
S11311F0369661917191AF0180911D0390911E0308
S113120030D0DF91CF9108950F931F93CF93DF9345
S1131210E0911D03F0911E03238121FF1BC0EC010B
S113122000E010E0899160911D0370911E03DB01C1
S11312301896ED91FC911997882331F01995892B13
S113124089F30FEF1FEFEECF8AE01995892B11F484
S1131250C80102C08FEF9FEFDF91CF911F910F91D3
S113126008952F923F924F925F926F927F928F9246
S11312709F92AF92BF92CF92DF92EF92FF920F9321
S11312801F93CF93DF93CDB7DEB72C970FB6F894A7
S1131290DEBF0FBECDBF7C016B018A01FC0117824A
S11312A01682838181FFB0C1CE0101964C01F70102
S11312B09381F60193FD859193FF81916F018823BA
S11312C009F49EC1853239F493FD859193FF819190
S11312D06F01853221F4B70190E00FD3E8CF512C90
S11312E0312C20E02032A0F48B3269F030F48032CB
S11312F059F0833269F420612CC08D3239F0803387
S113130039F4216026C02260246023C0286021C0F3
S113131027FD27C030ED380F3A3078F426FF06C099
S1131320FAE05F9E300D1124532E13C08AE0389EDC
S1131330300D1124332E20620CC08E3221F426FD90
S11313405FC1206406C08C3611F4206802C0883660
S113135041F4F60193FD859193FF81916F01811111
S1131360C1CF982F9F7D9554933028F40C5F1F4F65
S1131370FFE3F9830DC0833631F0833771F0833591
S113138009F057C021C0F801808189830E5F1F4F87
S113139044244394512C540114C03801F2E06F0EDC
S11313A0711CF801A080B18026FF03C0652D70E098
S11313B002C06FEF7FEFC5012C8794D22C0183010B
S11313C02C852F77222E16C03801F2E06F0E711C87
S11313D0F801A080B18026FF03C0652D70E002C033
S11313E06FEF7FEFC5012C876BD22C012C85206811
S11313F0222E830123FC19C0832D90E04816590640
S1131400A0F4B70180E290E078D23A94F5CFF501E8
S113141027FC859127FE81915F01B70190E06DD291
S113142031103A94F1E04F1A51084114510479F7FC
S1131430DEC0843611F0893631F5F80127FF07C084
S113144060817181828193810C5F1F4F08C060812C
S11314507181882777FD8095982F0E5F1F4F2F7617
S1131460B22E97FF09C090958095709561957F4F36
S11314708F4F9F4F2068B22E2AE030E0A4016FD234
S1131480A82EA81843C0853729F42F7EB22E2AE04F
S113149030E025C0F22FF97FBF2E8F36C1F018F44B
S11314A0883579F0ADC0803719F0883721F0A8C0AD
S11314B02F2F2061B22EB4FE0DC08B2D8460B82E68
S11314C009C024FF0AC09F2F9660B92E06C028E0E9
S11314D030E005C020E130E002C020E132E0F80154
S11314E0B7FE07C060817181828193810C5F1F4FB9
S11314F006C06081718180E090E00E5F1F4FA401FF
S11315002ED2A82EA818FB2DFF77BF2EB6FE0BC037
S11315102B2D2E7FA51450F4B4FE0AC0B2FC08C0D3
S11315202B2D2E7E05C07A2C2B2D03C07A2C01C0C6
S1131530752C24FF0DC0FE01EA0DF11D808180335E
S113154011F4297E09C022FF06C07394739404C069
S1131550822F867809F0739423FD12C020FF06C001
S11315605A2C731418F4530C5718732C731460F416
S1131570B70180E290E02C87C0D173942C85F6CF1C
S1131580731410F4371801C0312C24FF11C0B701B3
S113159080E390E02C87B1D12C8522FF16C021FF77
S11315A003C088E590E002C088E790E0B7010CC072
S11315B0822F867851F021FD02C080E201C08BE2C7
S11315C027FD8DE2B70190E098D1A51430F4B7015E
S11315D080E390E092D15A94F8CFAA94F401EA0DF2
S11315E0F11D8081B70190E088D1A110F6CF33209E
S11315F009F45DCEB70180E290E07FD13A94F7CF51
S1131600F7018681978102C08FEF9FEF2C960FB66A
S1131610F894DEBF0FBECDBFDF91CF911F910F9124
S1131620FF90EF90DF90CF90BF90AF909F908F90FE
S11316307F906F905F904F903F902F9008950F93FD
S11316401F93CF93DF93869F8001879F100D969FF2
S1131650100D1124C8010DD0EC01009721F0A80150
S113166060E070E038D1CE01DF91CF911F910F91EE
S11316700895CF93DF938230910510F482E090E0D7
S1131680E0912303F091240320E030E0A0E0B0E0F7
S1131690309739F14081518148175907B8F04817FC
S11316A0590771F482819381109729F013969C93C2
S11316B08E9312972CC0909324038093230327C006
S11316C02115310531F04217530718F0A901DB0148
S11316D001C0EF019A01BD01DF010280F381E02D19
S11316E0D7CF21153105F9F0281B390B24303105EA
S11316F080F48A819B816115710521F0FB0193833C
S1131700828304C09093240380932303FE013296C2
S113171044C0FE01E20FF31F8193919322503109DB
S1131720398328833AC02091210330912203232B4B
S113173041F420910202309103023093220320935A
S1131740210320910002309101022115310541F459
S11317502DB73EB74091040250910502241B350B6E
S1131760E0912103F0912203E217F307A0F42E1B6A
S11317703F0B2817390778F0AC014E5F5F4F2417F1
S1131780350748F04E0F5F1F509322034093210307
S11317908193919302C0E0E0F0E0CF01DF91CF911B
S11317A00895CF93DF93009709F487C0FC01329723
S11317B013821282C0912303D0912403209781F4D1
S11317C020813181280F391F8091210390912203B8
S11317D08217930779F5F0932203E09321036DC0F8
S11317E0DE0120E030E0AE17BF0750F412964D91B1
S11317F05C9113979D014115510509F1DA01F3CF6D
S1131800B383A28340815181840F951F8A179B075C
S113181071F48D919C911197840F951F0296918379
S1131820808312968D919C911397938382832115C3
S1131830310529F4F0932403E09323033EC0D90136
S11318401396FC93EE9312974D915D91A40FB51FDF
S1131850EA17FB0779F480819181840F951F029622
S1131860D90111969C938E938281938113969C93B4
S11318708E931297E0E0F0E08A819B81009719F043
S1131880FE01EC01F9CFCE01029628813981820F45
S1131890931F20912103309122032817390769F4FB
S11318A0309729F4109224031092230302C0138268
S11318B01282D0932203C0932103DF91CF91089524
S11318C0FC010590615070400110D8F78095909507
S11318D08E0F9F1F0895DC0101C06D93415050404D
S11318E0E0F70895FC016150704001900110D8F7B1
S11318F0809590958E0F9F1F08950F931F93CF93FC
S1131900DF93182F092FEB018B8181FD03C08FEF2B
S11319109FEF20C082FF10C04E815F812C813D81EA
S1131920421753077CF4E881F9819F012F5F3F4FF1
S113193039832883108306C0E885F985812F19959A
S1131940892B29F72E813F812F5F3F4F3F832E83C1
S1131950812F902FDF91CF911F910F910895FA015C
S1131960AA27283051F1203181F1E8946F936E7FDA
S11319706E5F7F4F8F4F9F4FAF4FB1E03ED0B4E0CB
S11319803CD0670F781F891F9A1FA11D680F791F0C
S11319908A1F911DA11D6A0F711D811D911DA11D1D
S11319A020D009F468943F912AE0269F112430192D
S11319B0305D3193DEF6CF010895462F4770405DC8
S11319C04193B3E00FD0C9F7F6CF462F4F70405D77
S11319D04A3318F0495D31FD4052419302D0A9F7D2
S11319E0EACFB4E0A6959795879577956795BA95CC
S11319F0C9F700976105710508959B01AC010A2E92
S1131A0006945795479537952795BA95C9F7620F68
S1111A10731F841F951FA01D0895F894FFCF27
S1131A1E00002503200017B75139000080406F12D3
S1131A2E833C7FF847414D45204F564552204C414B
S1131A3E4421210074657374207072696E740044BD
S1131A4E6966666963756C74793A2025640045721B
S1131A5E726F7220776974682074686520636F6E84
S1131A6E74726F6C6C65722E20526567697374653F
S1131A7E7273206E6F742070726F7065726C792041
S1131A8E72657365742E20000A2074686520646183
S1131A9E74612066726F6D207468652063616E6375
S1131AAE74726C3A202564000A207468652064619F
S1131ABE74612066726F6D207468652063616E6355
S1131ACE74726C20616674657220626974206D6F25
S1131ADE64696679696E67202873657474696E67C4
S1131AEE20746865206C617374203320626974738A
S1131AFE20746F207A65726F3A2025640A000A6397
S1131B0E616C6962726174696F6E20636F6D706C63
S1071B1E6574650081
S9030000FC
