S00C00004D61696E2E7372656393
S11300000C9477030C9494030C9494030C9494032D
S11300100C9494030C9494030C9494030C94940300
S11300200C9494030C9494030C9494030C949403F0
S11300300C9494030C9494030C9494030C949403E0
S11300400C9494030C9494030C9494030C949403D0
S11300500C9494030C9494030C9494030C949403C0
S11300600C9494030C9494030C9494030C949403B0
S1130070084AD73B3BCE016E84BCBFFDC12F3D6C0B
S113008074319ABD56833DDA3D00C77F11BED9E471
S1130090BB4C3E916BAAAABE000000803F0000004A
S11300A00000005C00000C000C007C287C2858DC5C
S11300B068002410480028542840000C00000078F0
S11300C084008478000054385400107C1000804070
S11300D00000101010000040000060100C003854A4
S11300E03800487C40004864580044542C001C10DC
S11300F07C005C5424003854240064140C006854BC
S11301002C004854380000480000804800001028A3
S113011044002828280044281000045408003844C7
S11301205C00781478007C542800384428007C440F
S113013038007C5444007C140400384474007C105F
S11301407C00447C440020403C007C106C007C40DB
S113015040007C187C0078103C00384438007C1443
S113016008003844B8007C14680048542400047C17
S113017004007C407C003C603C007C307C006C10C3
S11301806C000C700C0064544C00007C44000C1097
S11301906000447C000008040800808080000004A3
S11301A00800304878007C48300030484800304827
S11301B07C00306850001078140090A878007C0807
S11301C0700050744000808074007C106800447C8F
S11301D04000781078007808700030483000F82823
S11301E010003048F8007810080050582800083CE7
S11301F0480038407800384038007820780048308B
S1130200480098A078004868580010788400007C62
S113021000008478100008040804000000000000B6
S1130220005F00000007000700147F147F14242AD5
S11302307F2A1223130864623649552250000503AD
S11302400000001C2241000041221C00082A1C2A34
S11302500808083E0808005030000008080808088C
S1130260006060000020100804023E5149453E0031
S1130270427F400042615149462141454B311814A7
S1130280127F1027454545393C4A494930017109D7
S113029005033649494936064949291E00363600C0
S11302A000005636000000081422411414141414DB
S11302B041221408000201510906324979413E7E67
S11302C01111117E7F494949363E414141227F4106
S11302D041221C7F494949417F090901013E4141AD
S11302E051327F0808087F00417F41002040413F90
S11302F0017F081422417F404040407F0204027F76
S11303007F0408107F3E4141413E7F090909063EB2
S11303104151215E7F091929464649494931010164
S11303207F01013F4040403F1F2040201F7F201895
S1130330207F63140814630304780403615149455E
S11303404300007F4141020408102041417F000026
S11303500402010204404040404000010204002025
S1130360545454787F4844443838444444203844EE
S113037044487F3854545418087E09010208145420
S1130380543C7F0804047800447D40002040443DF0
S113039000007F10284400417F40007C041804784A
S11303A07C0804047838444444387C141414080841
S11303B01414187C7C080404084854545420043F42
S11303C04440203C4040207C1C2040201C3C4030C9
S11303D0403C44281028440C5050503C4464544C35
S11303E044000836410000007F0000004136080048
S11303F00201030201000000000000000000065F8B
S11304005F060000000007070007070000147F7F55
S1130410147F7F1400242E6B6B3A12000046663062
S1130420180C666200307A4F5D377A48000407037F
S11304300000000000001C3E634100000000416316
S11304403E1C000000082A3E1C1C3E2A0808083EE8
S11304503E0808000000A0E0600000000008080852
S11304600808080000000060600000000060301808
S11304700C060301003E7F594D7F3E000042427F3F
S11304807F40400000627359496F6600002263494F
S1130490497F360000181C16137F7F10002767451C
S11304A0457D3900003C7E4B49793000000363717F
S11304B0190F070000367F49497F360000064F496F
S11304C0693F1E000000006C6C0000000000A0ECFE
S11304D06C00000000081C36634100000014141472
S11304E01414140000004163361C08000002035178
S11304F0590F0600003E7F415D5D1F1E007C7E1388
S1130500137E7C0000417F7F49497F36001C3E6397
S11305104141632200417F7F41637F1C00417F7F13
S1130520495D416300417F7F491D0103001C3E6317
S113053041517372007F7F08087F7F000000417F74
S11305407F41000000307040417F3F0100417F7FC8
S1130550081C776300417F7F41406070007F7F0605
S11305600C067F7F007F7F060C187F7F001C3E6394
S113057041633E1C00417F7F49090F06001E3F2155
S1130580717F5E0000417F7F19396F460026674DF9
S1130590597B32000003417F7F410300007F7F408D
S11305A0407F7F00001F3F60603F1F00007F7F305F
S11305B018307F7F0063771C081C776300074F782F
S11305C0784F0700006773594D47637100007F7FC0
S11305D041410000000103060C1830600000414155
S11305E07F7F000000080C0603060C080080808052
S11305F08080808080000003070400000020745481
S1130600543C784000413F7F44447C3800387C446B
S1130610446C280000307848493F7F4000387C54BF
S1130620545C180000487E7F490302000098BCA473
S1130630A4F87C0400417F7F08047C780000447D9A
S11306407D4000000040C484FD7D000000417F7FA8
S113065010386C440000417F7F400000007C7C0C1B
S1130660180C7C78007C7C04047C780000387C4482
S1130670447C38000084FCF8A4243C1800183C2472
S1130680A4F8FC8400447C78441C180000485C54A2
S1130690547424000000043E7F442400003C7C4049
S11306A0403C7C40001C3C60603C1C00003C7C6086
S11306B030607C3C00446C3810386C44009CBCA016
S11306C0A0FC7C00004C64745C4C64000008083E90
S11306D07741410000000000777700000041417736
S11306E03E08080000020301030203010000112474
S11306F01FBECFEFD4E0DEBFCDBF11E0A0E0B1E07C
S1130700E0EEF0E202C005900D92A23DB107D9F7E8
S113071021E0A2EDB1E001C01D92A43EB207E1F7D1
S11307200E94E4040C946E100C940000BB9808958D
S113073080930014B399FECF8091001408950E9411
S11307400E080E94450540E060EE8FE00E945A05C5
S11307500895CF92DF92EF92FF920F931F93CF935E
S1130760DF93CDB7DEB72A970FB6F894DEBF0FBE7E
S1130770CDBF0983C12E1A832B833C834D835E83B3
S11307806F83788789879A8780E30E941F0583FD9A
S1130790FBCF602F6295660F607E81E30E94310576
S11307A0602F66956695669582E30E9431056C2DEF
S11307B085E30E943105D12C1C141D0494F47E01A0
S11307C083E0E80EF11C00E010E0F70161917F0185
S11307D086E3800F0E9431050F5F1F4F0C151D0526
S11307E0A4F381E00E944D052A960FB6F894DEBF6B
S11307F00FBECDBFDF91CF911F910F91FF90EF906E
S1130800DF90CF900895CF92DF92EF92FF920F93F3
S11308101F93CF93DF93EC010E944B040E940208C4
S1130820F82E092F84E00E949803C82E85E00E94C8
S11308309803D82E0E943904E82E0E94FB07182F33
S11308400E94FF0791E0988397E09983CA82DB8234
S1130850EC82FD820E831F838887CE01DF91CF91C6
S11308601F910F91FF90EF90DF90CF900895BA9869
S1130870089586B382FB882780F991E0892708953B
S113088084E00E9498038093D30185E00E9498033A
S11308908093D2010895CF93DF9384E00E9498035C
S11308A0C82FD0E08091D301C81BD10985E00E94F4
S11308B09803282F30E04091D201BE01C901841B66
S11308C09109DF91CF9108958F929F92AF92BF9239
S11308D0CF92DF92EF92FF920E944B046B017C0156
S11308E0CB0187968F34910528F4C70187968F34FE
S11308F0910598F1B601882777FD8095982F0E947D
S1130900E4094B015C01B701882777FD8095982F96
S11309100E94E409A50194010E94F40820EE3EE23D
S113092045E652E40E94C00A6B017C0120E030E0FD
S1130930A9010E944709882354F420E030E044EBE5
S113094053E4C701B6010E9481086B017C01C70111
S1130950B6010E94B109CB0102C08FEF9FEFFF9057
S1130960EF90DF90CF90BF90AF909F908F900895BD
S1130970CF930E9464048D329105C0F09C012B53E7
S113098031402E323105A0F0225F3E4F2A35310529
S113099088F02A5531092A35310570F02A55310974
S11309A02A35310558F0019661F40AC0C1E009C046
S11309B0C1E007C0C2E005C0C0E003C0C3E001C09D
S11309C0C4E08C2FCF910895CF93DF93CDB7DEB7DA
S11309D02A970FB6F894DEBF0FBECDBFF8940E94DD
S11309E072080E9474050E9423080E9496030E94C4
S11309F022070E9437040E9471070E9440040E944B
S1130A00F8050E949F030E9473062FEF8FE791E081
S1130A10215080409040E1F700C000C0CE01019613
S1130A200E94030409811A812B813C814D815E81DE
S1130A306F81788589859A850E94A903E4CFCF9335
S1130A40C82F0E941F0883E00E9416088C2F0E9462
S1130A5016080E941A08C82F0E9421088C2FCF91D3
S1130A600895CF93DF93D82FC62F0E941F0882E0EA
S1130A700E9416088D2F0E9416088C2F0E941608BB
S1130A800E942108DF91CF9108950E941F0880ECF5
S1130A900E9416080E9421080895CF93C82F0E942F
S1130AA01F088C2F877080680E9416080E942108F6
S1130AB0CF9108951F93CF93DF93182FD62FC42F70
S1130AC00E941F0885E00E941608812F0E941608C4
S1130AD08D2F0E9416088C2F0E9416080E94210850
S1130AE0DF91CF911F91089585B7806885BF80B746
S1130AF0806280BF0895FF920F931F93CF93DF937B
S1130B008C01EB01F42E8FE090E00E94280BFC0195
S1130B1013830283F482168215821086178212864A
S1130B20118614861386D687C58789E191E091835F
S1130B308083CF01DF91CF911F910F91FF90089592
S1130B40DF92EF92FF920F931F93CF93DF937C0179
S1130B500E947107F701C185D285209709F440C02E
S1130B6080E00E94500780E00E9457078CE191E0EA
S1130B709F938F930E94EB078B818F938A818F932E
S1130B800E94EB070F80D885C02D0F900F900F9017
S1130B900F902097F1F0DD24D39409E111E08D2D1D
S1130BA00E94500780E00E9457071F930F930E94F2
S1130BB0EB078B818F938A818F930E94EB07D394E9
S1130BC00F80D885C02D0F900F900F900F90209715
S1130BD031F7F701818592859093D5018093D401F3
S1130BE0DF91CF911F910F91FF90EF90DF900895C7
S1130BF00F931F93CF93DF9340E060E070E08FE1A9
S1130C0091E00E947B05EC019093D7018093D6017B
S1130C1040E060E070E089E291E00E947B059A8701
S1130C208987FC01D487C38709851A8541E060E080
S1130C3070E08EE291E00E947B05F8019087878343
S1130C40E985FA850780F085E02DD487C387E98597
S1130C50FA85A781B0851696FC93EE931597E985DE
S1130C60FA850781108540E060E070E087E391E059
S1130C700E947B05F80192878187E985FA850780C0
S1130C80F085E02DA185B2851C96FC93EE931B970D
S1130C90E985FA850780F085E02D0185128541E01C
S1130CA060E070E082E491E00E947B05F8019087A7
S1130CB08783E985FA850780F085E02D0184F28534
S1130CC0E02DA781B0851696FC93EE931597D093EB
S1130CD0D501C093D401CE010E94A005DF91CF912C
S1130CE01F910F9108950E94B8041F928F938DE471
S1130CF091E09F938F930E94F80C0E94B8040F9088
S1130D000F900F900F908230A9F5E091D401F091EB
S1130D10D50185819681892B09F493C084810E9431
S1130D20500780E00E945707E091D401F091D5016B
S1130D3081818F9380818F930E94EB07E091D4018E
S1130D40F091D5010580F681E02DF093D501E09373
S1130D50D40184810E94500780E00E9457078CE1EF
S1130D6091E09F938F930E94EB070F900F900F9049
S1130D700F9008950E94B8048330A9F5E091D4013E
S1130D80F091D50187819085892B09F45AC084811B
S1130D900E94500780E00E945707E091D401F0912F
S1130DA0D50181818F9380818F930E94EB07E0911D
S1130DB0D401F091D5010780F085E02DF093D501A1
S1130DC0E093D40184810E94500780E00E94570779
S1130DD08CE191E09F938F930E94EB070F900F900B
S1130DE00F900F9008950E94B804813021F00E9462
S1130DF03904882391F0E091D401F091D501018464
S1130E00F285E02D3097E9F0F093D501E093D40119
S1130E10838594850E94A00508950E94B8048111D9
S1130E2010C0E091D401F091D5018385948590930D
S1130E30D5018093D4018091D6019091D7010E946D
S1130E40A0050895E0E0F0E18EEA808381EA8083E2
S1130E508AED808382E1808388EC808388EA8083C2
S1130E608FE3808385ED808380E8808381E88083BD
S1130E7080E5808389ED808381E2808380E28083C2
S1130E8082E080838BED808380E380838DEA80839E
S1130E90108284EA808386EA80838FEA80830895BF
S1130EA090EB980F909300108093D801089580934D
S1130EB0D901982F9F70E0E0F0E1908382958F70C4
S1130EC0805F808308950E94500780E00E94570746
S1130ED080E890E0E0E0F2E1108201970097E1F70A
S1130EE00895CF93C0E08C2F0E946307CF5FC83072
S1130EF0D1F780E00E94570780E00E945007CF910D
S1130F0008951F93CF93DF93182F8091D8010E94E7
S1130F1050078091D9010E94570790910A01983097
S1130F2059F4C12FD0E0CC0FDD1FCC0FDD1FCC0F47
S1130F30DD1FCB50DD4F1AC0953071F4212F30E006
S1130F4020523109E901CC0FDD1FCC0FDD1FC20F88
S1130F50D31FC65EDD4F0AC0943041F4C12FD0E0E8
S1130F60CC0FDD1FCC0FDD1FC25EDF4F2091D901F6
S1130F70892F90E0820F911D813891057CF080913A
S1130F80D8018F5F0E94500780E00E94570780912C
S1130F90D801883019F480E00E94500780910A013A
S1130FA08823A9F080E090E0A0E0B2E1FE01E80F20
S1130FB0F91FE491EC932091D9012F5F2093D9017B
S1130FC0019620910A0130E0821793077CF3DF91A8
S1130FD0CF911F910895CF93DF93CDB7DEB7FE0174
S1130FE0359661917191AF018BE091E00E94390DCA
S1130FF0DF91CF91089586B386958170089586B365
S113100081700895CF9386E00E949803C82F87E0EB
S11310100E949803982F8C2FCF910895BD9ABF9A60
S1131020BC9ABE9881E58DB9C49A08958FB9779B0F
S1131030FECF08951FB8779BFECF8FB10895C49853
S11310400895C49A0895EF92FF920F931F93CF933C
S1131050DF9385E691E00E940C0D80E090E00E9411
S1131060A20CC0E0D8E100E010E00E949D0C88834F
S11310709881981711F00F5F1F4F2196C11580E2D8
S1131080D80799F780E090E00E94A20CC0E0D8E174
S1131090E12CF12C0E949D0C9881981719F08FEF88
S11310A0E81AF80A2196C11580E2D80799F7FF9249
S11310B0EF921F930F938BE791E09F938F930E947E
S11310C0F80C0F900F900F900F900F900F90DF91EE
S11310D0CF911F910F91FF90EF9008955D9BFECFEC
S11310E08CB9089510BC8FE189B988E18AB98EE87A
S11310F080BD60E070E08EE698E00E94AD0C08953B
S11311005058BB27AA270ED0FAC1EBD130F0F0D14A
S113111020F031F49F3F11F41EF4BBC10EF4E095AE
S1131120E7FBB1C1E92FFCD180F3BA17620773075B
S11311308407950718F071F49EF514C20EF4E09537
S11311400B2EBA2FA02D0B01B90190010C01CA017D
S1131150A0011124FF27591B99F0593F50F4503E28
S113116068F11A16F040A22F232F342F4427585F1A
S1131170F3CF469537952795A795F0405395C9F732
S11311807EF41F16BA0B620B730B840BBAF09150EA
S1131190A1F0FF0FBB1F661F771F881FC2F70EC089
S11311A0BA0F621F731F841F48F48795779567955C
S11311B0B795F7959E3F08F0B3CF9395880F08F045
S11311C09927EE0F9795879508958BD158F080E86D
S11311D091E009F49EEF8CD128F040E851E059F4F5
S11311E05EEF09C056C1BEC1E92FE07899D168F31A
S11311F0092E052AC1F3261737074807590738F07F
S11312000E2E07F8E02569F0E025E0640AC0EF63DC
S113121007F8009407FADB01B9019D01DC01CA015A
S1131220AD01EF9345D06BD10AD05F91552331F0D6
S11312302BED3FE049E450FD49EC63CF0895DF9383
S1131240DD27B92FBF7740E85FE316161706480776
S11312505B0710F4D92F8DD19F938F937F936F9356
S1131260F2D1E0E7F0E018D14AD12F913F914F91AC
S11312705F9192D1DD2349F09058A2EA2AED3FE034
S113128049EC5FE3D0785D274DDFDF9138C1D7D0DB
S113129008F481E008952CD140F023D130F021F4FA
S11312A05F3F19F0F0C051115EC1F3C039D198F31A
S11312B09923C9F35523B1F3951B550BBB27AA27D3
S11312C062177307840738F09F5F5F4F220F331F45
S11312D0441FAA1FA9F333D00E2E3AF0E0E830D011
S11312E091505040E695001CCAF729D0FE2F27D014
S11312F0660F771F881FBB1F261737074807AB07E2
S1131300B0E809F0BB0B802DBF01FF2793585F4F56
S11313102AF09E3F510568F0B6C025C15F3FECF34B
S1131320983EDCF3869577956795B795F7959F5F1B
S1131330C9F7880F911D9695879597F90895E1E06F
S1131340660F771F881FBB1F621773078407BA07CE
S113135020F0621B730B840BBA0BEE1F88F7E09529
S1131360089504D06894B111FEC00895E1D088F0C6
S11313709F5790F0B92F9927B751A0F0D1F0660F7D
S1131380771F881F991F1AF0BA95C9F712C0B13098
S113139081F0E8D0B1E00895E5C0672F782F882761
S11313A0B85F39F0B93FCCF3869577956795B395D7
S11313B0D9F73EF490958095709561957F4F8F4F46
S11313C09F4F0895E89409C097FB3EF4909580954B
S11313D0709561957F4F8F4F9F4F9923A9F0F92FF7
S11313E096E9BB279395F695879577956795B79575
S11313F0F111F8CFFAF4BB0F11F460FF1BC06F5F5B
S11314007F4F8F4F9F4F16C0882311F096E911C06C
S1131410772321F09EE8872F762F05C0662371F08D
S113142096E8862F70E060E02AF09A95660F771FA1
S1131430881FDAF7880F9695879597F90895990F7D
S11314400008550FAA0BE0E8FEEF16161706E8078A
S1131450F907C0F012161306E407F50798F0621BAB
S1131460730B840B950B39F40A2661F0232B242B80
S1131470252B21F408950A2609F4A140A6958FEF9F
S1131480811D811D089597F99F6780E870E060E0F1
S113149008959FEF80EC0895DF93CF931F930F93EC
S11314A0FF92EF92DF927B018C01689405C0DA2EE3
S11314B0EF0172D0FE01E894A591259135914591F3
S11314C05591AEF3EF012EDEFE019701A801DA94E7
S11314D079F7DF90EF90FF900F911F91CF91DF91FB
S11314E0089500240A941616170618060906089586
S11314F000240A9412161306140605060895092EEC
S11315000394000C11F4882352F0BB0F40F4BF2B5A
S113151011F460FF04C06F5F7F4F8F4F9F4F08959A
S113152057FD9058440F551F59F05F3F71F0479590
S1131530880F97FB991F61F09F3F79F08795089575
S1131540121613061406551FF2CF4695F1DF08C094
S1131550161617061806991FF1CF869571056105B1
S113156008940895E894BB2766277727CB0197F959
S113157008959B01AC0160E070E080E89FE366C0E1
S11315800BD0BDCFAEDF28F0B3DF18F0952309F000
S11315907ACF7FCF1124E7CFC3DFA0F3959FD1F398
S11315A0950F50E0551F629FF001729FBB27F00D0D
S11315B0B11D639FAA27F00DB11DAA1F649F662762
S11315C0B00DA11D661F829F2227B00DA11D621FB1
S11315D0739FB00DA11D621F839FA00D611D221F6B
S11315E0749F3327A00D611D231F849F600D211D4F
S11315F0822F762F6A2F11249F5750408AF0E1F0F2
S113160088234AF0EE0FFF1FBB1F661F771F881F3A
S113161091505040A9F79E3F510570F034CFA3CFAD
S11316205F3FECF3983EDCF3869577956795B79525
S1131630F795E7959F5FC1F7FE2B880F911D96954F
S1131640879597F908959B01AC019ACF2FDE57CF68
S1131650CF93DF938230910510F482E090E0E09123
S1131660DC01F091DD0120E030E0A0E0B0E0309753
S113167039F14081518148175907B8F04817590783
S113168071F482819381109729F013969C938E9321
S113169012972CC09093DD018093DC0127C02115A3
S11316A0310531F04217530718F0A901DB0101C0DD
S11316B0EF019A01BD01DF010280F381E02DD7CF54
S11316C021153105F9F0281B390B2430310580F43C
S11316D08A819B816115710521F0FB0193838283CB
S11316E004C09093DD018093DC01FE01329644C076
S11316F0FE01E20FF31F8193919322503109398344
S113170028833AC02091DA013091DB01232B41F484
S113171020910201309103013093DB012093DA011F
S113172020910001309101012115310541F42DB7BB
S11317303EB74091040150910501241B350BE09103
S1131740DA01F091DB01E217F307A0F42E1B3F0B43
S11317502817390778F0AC014E5F5F4F241735071F
S113176048F04E0F5F1F5093DB014093DA018193E1
S1131770919302C0E0E0F0E0CF01DF91CF910895B2
S1131780CF93DF93009709F487C0FC01329713824B
S11317901282C091DC01D091DD01209781F4208177
S11317A03181280F391F8091DA019091DB01821772
S11317B0930779F5F093DB01E093DA016DC0DE0164
S11317C020E030E0AE17BF0750F412964D915C91C3
S11317D013979D014115510509F1DA01F3CFB38344
S11317E0A28340815181840F951F8A179B0771F44E
S11317F08D919C911197840F951F029691838083FC
S113180012968D919C9113979383828321153105B0
S113181029F4F093DD01E093DC013EC0D901139675
S1131820FC93EE9312974D915D91A40FB51FEA17A7
S1131830FB0779F480819181840F951F0296D90169
S113184011969C938E938281938113969C938E938D
S11318501297E0E0F0E08A819B81009719F0FE0185
S1131860EC01F9CFCE01029628813981820F931FB2
S11318702091DA013091DB012817390769F4309798
S113188029F41092DD011092DC0102C0138212824D
S1131890D093DB01C093DA01DF91CF9108958F9249
S11318A09F92AF92BF92CF92DF92EF92FF92CF932B
S11318B0DF93EC01688179818A819B8161157105CF
S11318C08105910521F464E279ED8BE597E02DE142
S11318D033EF41E050E00E94D40F49015A019B01CB
S11318E0AC01A7EAB1E40E94F30F6B017C01ACEEFA
S11318F0B4EFA50194010E940110C60ED71EE81E84
S1131900F91EF7FE06C081E0C81AD108E10880E894
S1131910F80AC882D982EA82FB82C6019F77DF91E6
S1131920CF91FF90EF90DF90CF90BF90AF909F90BA
S11319308F9008950E944F0C089586E091E00E94D4
S11319404F0C0895A0E0B0E0809306019093070146
S1131950A0930801B093090108950F931F93CF93A7
S1131960DF93EC018B01009731F46115710519F4D3
S113197080E090E038C06EE070E081E090E00E948A
S11319800B0FFC010097A1F380E883830115110577
S113199071F01387028781E883838091DE0190913F
S11319A0DF01892B21F4F093DF01E093DE0120971E
S11319B0C9F0D187C0878381826083838091E001ED
S11319C09091E101892B71F4F093E101E093E0013E
S11319D08091E2019091E301892B21F4F093E301DA
S11319E0E093E201CF01DF91CF911F910F91089510
S11319F0A0E0B0E0EEEFFCE00C941610FE0135968A
S1131A0061917191AF018091E0019091E1010E9497
S1131A10390DE2E00C9432100F931F93CF93DF93B0
S1131A20E091E001F091E101238121FF1BC0EC0171
S1131A3000E010E089916091E0017091E101DB0127
S1131A401896ED91FC911997882331F00995892B0B
S1131A5089F30FEF1FEFEECF8AE00995892B11F47C
S1131A60C80102C08FEF9FEFDF91CF911F910F91BB
S1131A700895ACE0B0E0EFE3FDE00C9406107C01C7
S1131A806B018A01FC0117821682838181FFBDC12B
S1131A90CE0101964C01F7019381F60193FD8591E6
S1131AA093FF81916F01882309F4ABC1853239F426
S1131AB093FD859193FF81916F01853229F4B701DC
S1131AC090E00E94440FE7CF512C312C20E02032CB
S1131AD0A0F48B3269F030F4803259F0833269F427
S1131AE020612CC08D3239F0803339F4216026C056
S1131AF02260246023C0286021C027FD27C030ED68
S1131B00380F3A3078F426FF06C0FAE05F9E300DB5
S1131B101124532E13C08AE0389E300D1124332E25
S1131B2020620CC08E3221F426FD6BC1206406C0F5
S1131B308C3611F4206802C0883641F4F60193FD16
S1131B40859193FF81916F018111C1CF982F9F7D62
S1131B509554933028F40C5F1F4FFFE3F9830DC0B5
S1131B60833631F0833771F0833509F05BC022C0CE
S1131B70F801808189830E5F1F4F44244394512CC4
S1131B80540115C03801F2E06F0E711CF801A080F9
S1131B90B18026FF03C0652D70E002C06FEF7FEFB8
S1131BA0C5012C870E94390F2C0183012C852F77C6
S1131BB0222E17C03801F2E06F0E711CF801A080CC
S1131BC0B18026FF03C0652D70E002C06FEF7FEF88
S1131BD0C5012C870E94270F2C012C852068222EFA
S1131BE0830123FC1BC0832D90E048165906B0F4F2
S1131BF0B70180E290E00E94440F3A94F4CFF501DB
S1131C0027FC859127FE81915F01B70190E00E9436
S1131C10440F31103A94F1E04F1A51084114510421
S1131C2071F7E5C0843611F0893639F5F80127FFDC
S1131C3007C060817181828193810C5F1F4F08C04E
S1131C4060817181882777FD8095982F0E5F1F4FE3
S1131C502F76B22E97FF09C0909580957095619567
S1131C607F4F8F4F9F4F2068B22E2AE030E0A401AF
S1131C700E94760FA82EA81844C0853729F42F7E19
S1131C80B22E2AE030E025C0F22FF97FBF2E8F3626
S1131C90C1F018F4883579F0B4C0803719F088376A
S1131CA021F0AFC02F2F2061B22EB4FE0DC08B2DBA
S1131CB08460B82E09C024FF0AC09F2F9660B92EF5
S1131CC006C028E030E005C020E130E002C020E199
S1131CD032E0F801B7FE07C060817181828193818F
S1131CE00C5F1F4F06C06081718180E090E00E5F41
S1131CF01F4FA4010E94760FA82EA818FB2DFF7772
S1131D00BF2EB6FE0BC02B2D2E7FA51450F4B4FEAF
S1131D100AC0B2FC08C02B2D2E7E05C07A2C2B2DB8
S1131D2003C07A2C01C0752C24FF0DC0FE01EA0DFE
S1131D30F11D8081803311F4297E09C022FF06C081
S1131D407394739404C0822F867809F0739423FDEE
S1131D5013C020FF06C05A2C731418F4530C5718E0
S1131D60732C731468F4B70180E290E02C870E940E
S1131D70440F73942C85F5CF731410F4371801C0F5
S1131D80312C24FF12C0B70180E390E02C870E941D
S1131D90440F2C8522FF17C021FF03C088E590E083
S1131DA002C088E790E0B7010CC0822F867859F012
S1131DB021FD02C080E201C08BE227FD8DE2B70164
S1131DC090E00E94440FA51438F4B70180E390E03A
S1131DD00E94440F5A94F7CFAA94F401EA0DF11D1E
S1131DE08081B70190E00E94440FA110F5CF332009
S1131DF009F451CEB70180E290E00E94440F3A9476
S1131E00F6CFF7018681978102C08FEF9FEF2C9662
S1131E10E2E10C9422100F931F93CF93DF93869FDC
S1131E208001879F100D969F100D1124C8010E94F8
S1131E30280BEC01009729F0A80160E070E00E94F3
S1131E40320FCE01DF91CF911F910F910895FC01C4
S1131E500590615070400110D8F7809590958E0FD1
S1131E609F1F0895DC0101C06D9341505040E0F77D
S1131E700895FC016150704001900110D8F78095DD
S1131E8090958E0F9F1F08950F931F93CF93DF9309
S1131E90182F092FEB018B8181FD03C08FEF9FEF7A
S1131EA020C082FF10C04E815F812C813D8142178A
S1131EB053077CF4E881F9819F012F5F3F4F3983F9
S1131EC02883108306C0E885F985812F0995892B1D
S1131ED029F72E813F812F5F3F4F3F832E83812F30
S1131EE0902FDF91CF911F910F910895FA01AA27A6
S1131EF0283051F1203181F1E8946F936E7F6E5F49
S1131F007F4F8F4F9F4FAF4FB1E03ED0B4E03CD0F6
S1131F10670F781F891F9A1FA11D680F791F8A1FD9
S1131F20911DA11D6A0F711D811D911DA11D20D040
S1131F3009F468943F912AE0269F11243019305DFA
S1131F403193DEF6CF010895462F4770405D4193EB
S1131F50B3E00FD0C9F7F6CF462F4F70405D4A3338
S1131F6018F0495D31FD4052419302D0A9F7EACF00
S1131F70B4E0A6959795879577956795BA95C9F72F
S1131F8000976105710508959B01AC010A2E069422
S1131F905795479537952795BA95C9F7620F731FDB
S1131FA0841F951FA01D0895052E97FB1EF4009411
S1131FB00E94EB0F57FD07D00E943D1007FC03D091
S1131FC04EF40C94EB0F50954095309521953F4F6E
S1131FD04F4F5F4F089590958095709561957F4F11
S1131FE08F4F9F4F08950E945F10A59F900DB49F3F
S1131FF0900DA49F800D911D11240895B7FF0C949A
S1132000F30F0E94F30F821B930B08952F923F92BC
S11320104F925F926F927F928F929F92AF92BF92F4
S1132020CF92DF92EF92FF920F931F93CF93DF93A0
S1132030CDB7DEB7CA1BDB0B0FB6F894DEBF0FBEFD
S1132040CDBF09942A88398848885F846E847D844A
S11320508C849B84AA84B984C884DF80EE80FD804C
S11320600C811B81AA81B981CE0FD11D0FB6F894C2
S1132070DEBF0FBECDBFED010895A1E21A2EAA1B4B
S1132080BB1BFD010DC0AA1FBB1FEE1FFF1FA21724
S1132090B307E407F50720F0A21BB30BE40BF50B21
S11320A0661F771F881F991F1A9469F760957095AA
S11320B0809590959B01AC01BD01CF010895A29F2D
S11320C0B001B39FC001A39F700D811D1124911D08
S11320D0B29F700D811D1124911D0895F894FFCFB6
S11320E00000E401200001000000080000000200DC
S11320F00000008107000000002020002D3E004D5C
S113210061696E204D656E7500506C617900536590
S11321107474696E6773004272696768746E65737C
S11321207300446966666963756C747900637572DB
S113213072656E7420646972656374696F6E3A20A7
S11321402564200A005374617274696E67205352C7
S1132150414D20746573742E2E2E005352414D2030
S11321607465737420636F6D706C65746564207737
S11321706974680A253464206572726F7273206909
S11321806E20777269746520706861736520616E72
S1132190640A253464206572726F7273696E2072EA
S11321A0657472696576616C2070686173650A0A8A
S10521B0000029
S9030000FC
